{
  "_format": "hh-sol-artifact-1",
  "contractName": "AMMRouter",
  "sourceName": "contracts/AMMRouter.sol",
  "abi": [
    {
      "inputs": [
        {
          "internalType": "address",
          "name": "_factory",
          "type": "address"
        }
      ],
      "stateMutability": "nonpayable",
      "type": "constructor"
    },
    {
      "inputs": [
        {
          "internalType": "address",
          "name": "tokenA",
          "type": "address"
        },
        {
          "internalType": "address",
          "name": "tokenB",
          "type": "address"
        },
        {
          "internalType": "uint256",
          "name": "amountA",
          "type": "uint256"
        },
        {
          "internalType": "uint256",
          "name": "amountB",
          "type": "uint256"
        },
        {
          "internalType": "address",
          "name": "to",
          "type": "address"
        }
      ],
      "name": "addLiquidity",
      "outputs": [
        {
          "internalType": "uint256",
          "name": "liquidity",
          "type": "uint256"
        }
      ],
      "stateMutability": "nonpayable",
      "type": "function"
    },
    {
      "inputs": [],
      "name": "factory",
      "outputs": [
        {
          "internalType": "address",
          "name": "",
          "type": "address"
        }
      ],
      "stateMutability": "view",
      "type": "function"
    },
    {
      "inputs": [
        {
          "internalType": "address",
          "name": "tokenA",
          "type": "address"
        },
        {
          "internalType": "address",
          "name": "tokenB",
          "type": "address"
        },
        {
          "internalType": "uint256",
          "name": "liquidity",
          "type": "uint256"
        },
        {
          "internalType": "address",
          "name": "to",
          "type": "address"
        }
      ],
      "name": "removeLiquidity",
      "outputs": [
        {
          "internalType": "uint256",
          "name": "amountA",
          "type": "uint256"
        },
        {
          "internalType": "uint256",
          "name": "amountB",
          "type": "uint256"
        }
      ],
      "stateMutability": "nonpayable",
      "type": "function"
    },
    {
      "inputs": [
        {
          "internalType": "uint256",
          "name": "amountIn",
          "type": "uint256"
        },
        {
          "internalType": "uint256",
          "name": "amountOutMin",
          "type": "uint256"
        },
        {
          "internalType": "address",
          "name": "pathFrom",
          "type": "address"
        },
        {
          "internalType": "address",
          "name": "pathTo",
          "type": "address"
        },
        {
          "internalType": "address",
          "name": "to",
          "type": "address"
        }
      ],
      "name": "swapExactTokensForTokens",
      "outputs": [
        {
          "internalType": "uint256",
          "name": "amountOut",
          "type": "uint256"
        }
      ],
      "stateMutability": "nonpayable",
      "type": "function"
    }
  ],
  "bytecode": "0x60806040523480156200001157600080fd5b5060405162001238380380620012388339818101604052810190620000379190620000e8565b806000806101000a81548173ffffffffffffffffffffffffffffffffffffffff021916908373ffffffffffffffffffffffffffffffffffffffff160217905550506200011a565b600080fd5b600073ffffffffffffffffffffffffffffffffffffffff82169050919050565b6000620000b08262000083565b9050919050565b620000c281620000a3565b8114620000ce57600080fd5b50565b600081519050620000e281620000b7565b92915050565b6000602082840312156200010157620001006200007e565b5b60006200011184828501620000d1565b91505092915050565b61110e806200012a6000396000f3fe608060405234801561001057600080fd5b506004361061004c5760003560e01c8063268a380b1461005157806335d37664146100815780634b2fc7bb146100b2578063c45a0155146100e2575b600080fd5b61006b60048036038101906100669190610a4e565b610100565b6040516100789190610ad8565b60405180910390f35b61009b60048036038101906100969190610af3565b61050f565b6040516100a9929190610b5a565b60405180910390f35b6100cc60048036038101906100c79190610b83565b61069d565b6040516100d99190610ad8565b60405180910390f35b6100ea6108a5565b6040516100f79190610c0d565b60405180910390f35b60008061010d85856108c9565b9050600073ffffffffffffffffffffffffffffffffffffffff168173ffffffffffffffffffffffffffffffffffffffff160361017e576040517f08c379a000000000000000000000000000000000000000000000000000000000815260040161017590610c85565b60405180910390fd5b8473ffffffffffffffffffffffffffffffffffffffff166323b872dd33838a6040518463ffffffff1660e01b81526004016101bb93929190610ca5565b6020604051808303816000875af11580156101da573d6000803e3d6000fd5b505050506040513d601f19601f820116820180604052508101906101fe9190610d14565b506000808273ffffffffffffffffffffffffffffffffffffffff16630902f1ac6040518163ffffffff1660e01b81526004016040805180830381865afa15801561024c573d6000803e3d6000fd5b505050506040513d601f19601f820116820180604052508101906102709190610d87565b9150915060008673ffffffffffffffffffffffffffffffffffffffff168873ffffffffffffffffffffffffffffffffffffffff16106102b05786886102b3565b87875b50905060008173ffffffffffffffffffffffffffffffffffffffff168973ffffffffffffffffffffffffffffffffffffffff16146102f157826102f3565b835b6dffffffffffffffffffffffffffff16905060008273ffffffffffffffffffffffffffffffffffffffff168a73ffffffffffffffffffffffffffffffffffffffff16146103405784610342565b835b6dffffffffffffffffffffffffffff16905060006103e58d6103649190610df6565b9050600082826103749190610df6565b90506000826103e8866103879190610df6565b6103919190610e38565b9050808261039f9190610e9b565b99508d8a10156103e4576040517f08c379a00000000000000000000000000000000000000000000000000000000081526004016103db90610f18565b60405180910390fd5b8573ffffffffffffffffffffffffffffffffffffffff168d73ffffffffffffffffffffffffffffffffffffffff160361048c578873ffffffffffffffffffffffffffffffffffffffff16636d9a640a60008c8e6040518463ffffffff1660e01b815260040161045593929190610f7d565b600060405180830381600087803b15801561046f57600080fd5b505af1158015610483573d6000803e3d6000fd5b505050506104fd565b8873ffffffffffffffffffffffffffffffffffffffff16636d9a640a8b60008e6040518463ffffffff1660e01b81526004016104ca93929190610fb4565b600060405180830381600087803b1580156104e457600080fd5b505af11580156104f8573d6000803e3d6000fd5b505050505b50505050505050505095945050505050565b600080600061051e87876108c9565b9050600073ffffffffffffffffffffffffffffffffffffffff168173ffffffffffffffffffffffffffffffffffffffff160361058f576040517f08c379a000000000000000000000000000000000000000000000000000000000815260040161058690610c85565b60405180910390fd5b8073ffffffffffffffffffffffffffffffffffffffff166323b872dd3383886040518463ffffffff1660e01b81526004016105cc93929190610ca5565b6020604051808303816000875af11580156105eb573d6000803e3d6000fd5b505050506040513d601f19601f8201168201806040525081019061060f9190610d14565b508073ffffffffffffffffffffffffffffffffffffffff166389afcb44856040518263ffffffff1660e01b81526004016106499190610c0d565b60408051808303816000875af1158015610667573d6000803e3d6000fd5b505050506040513d601f19601f8201168201806040525081019061068b9190611000565b80935081945050505094509492505050565b6000806106aa87876108c9565b9050600073ffffffffffffffffffffffffffffffffffffffff168173ffffffffffffffffffffffffffffffffffffffff160361071b576040517f08c379a000000000000000000000000000000000000000000000000000000000815260040161071290610c85565b60405180910390fd5b8673ffffffffffffffffffffffffffffffffffffffff166323b872dd3383886040518463ffffffff1660e01b815260040161075893929190610ca5565b6020604051808303816000875af1158015610777573d6000803e3d6000fd5b505050506040513d601f19601f8201168201806040525081019061079b9190610d14565b508573ffffffffffffffffffffffffffffffffffffffff166323b872dd3383876040518463ffffffff1660e01b81526004016107d993929190610ca5565b6020604051808303816000875af11580156107f8573d6000803e3d6000fd5b505050506040513d601f19601f8201168201806040525081019061081c9190610d14565b508073ffffffffffffffffffffffffffffffffffffffff16636a627842846040518263ffffffff1660e01b81526004016108569190610c0d565b6020604051808303816000875af1158015610875573d6000803e3d6000fd5b505050506040513d601f19601f820116820180604052508101906108999190611040565b91505095945050505050565b60008054906101000a900473ffffffffffffffffffffffffffffffffffffffff1681565b60008060008373ffffffffffffffffffffffffffffffffffffffff168573ffffffffffffffffffffffffffffffffffffffff161061090857838561090b565b84845b9150915060008054906101000a900473ffffffffffffffffffffffffffffffffffffffff1673ffffffffffffffffffffffffffffffffffffffff1663e6a4390583836040518363ffffffff1660e01b815260040161096a92919061106d565b602060405180830381865afa158015610987573d6000803e3d6000fd5b505050506040513d601f19601f820116820180604052508101906109ab91906110ab565b9250505092915050565b600080fd5b6000819050919050565b6109cd816109ba565b81146109d857600080fd5b50565b6000813590506109ea816109c4565b92915050565b600073ffffffffffffffffffffffffffffffffffffffff82169050919050565b6000610a1b826109f0565b9050919050565b610a2b81610a10565b8114610a3657600080fd5b50565b600081359050610a4881610a22565b92915050565b600080600080600060a08688031215610a6a57610a696109b5565b5b6000610a78888289016109db565b9550506020610a89888289016109db565b9450506040610a9a88828901610a39565b9350506060610aab88828901610a39565b9250506080610abc88828901610a39565b9150509295509295909350565b610ad2816109ba565b82525050565b6000602082019050610aed6000830184610ac9565b92915050565b60008060008060808587031215610b0d57610b0c6109b5565b5b6000610b1b87828801610a39565b9450506020610b2c87828801610a39565b9350506040610b3d878288016109db565b9250506060610b4e87828801610a39565b91505092959194509250565b6000604082019050610b6f6000830185610ac9565b610b7c6020830184610ac9565b9392505050565b600080600080600060a08688031215610b9f57610b9e6109b5565b5b6000610bad88828901610a39565b9550506020610bbe88828901610a39565b9450506040610bcf888289016109db565b9350506060610be0888289016109db565b9250506080610bf188828901610a39565b9150509295509295909350565b610c0781610a10565b82525050565b6000602082019050610c226000830184610bfe565b92915050565b600082825260208201905092915050565b7f504149525f4e4f545f4558495354000000000000000000000000000000000000600082015250565b6000610c6f600e83610c28565b9150610c7a82610c39565b602082019050919050565b60006020820190508181036000830152610c9e81610c62565b9050919050565b6000606082019050610cba6000830186610bfe565b610cc76020830185610bfe565b610cd46040830184610ac9565b949350505050565b60008115159050919050565b610cf181610cdc565b8114610cfc57600080fd5b50565b600081519050610d0e81610ce8565b92915050565b600060208284031215610d2a57610d296109b5565b5b6000610d3884828501610cff565b91505092915050565b60006dffffffffffffffffffffffffffff82169050919050565b610d6481610d41565b8114610d6f57600080fd5b50565b600081519050610d8181610d5b565b92915050565b60008060408385031215610d9e57610d9d6109b5565b5b6000610dac85828601610d72565b9250506020610dbd85828601610d72565b9150509250929050565b7f4e487b7100000000000000000000000000000000000000000000000000000000600052601160045260246000fd5b6000610e01826109ba565b9150610e0c836109ba565b9250828202610e1a816109ba565b91508282048414831517610e3157610e30610dc7565b5b5092915050565b6000610e43826109ba565b9150610e4e836109ba565b9250828201905080821115610e6657610e65610dc7565b5b92915050565b7f4e487b7100000000000000000000000000000000000000000000000000000000600052601260045260246000fd5b6000610ea6826109ba565b9150610eb1836109ba565b925082610ec157610ec0610e6c565b5b828204905092915050565b7f494e53554646494349454e545f4f555450555400000000000000000000000000600082015250565b6000610f02601383610c28565b9150610f0d82610ecc565b602082019050919050565b60006020820190508181036000830152610f3181610ef5565b9050919050565b6000819050919050565b6000819050919050565b6000610f67610f62610f5d84610f38565b610f42565b6109ba565b9050919050565b610f7781610f4c565b82525050565b6000606082019050610f926000830186610f6e565b610f9f6020830185610ac9565b610fac6040830184610bfe565b949350505050565b6000606082019050610fc96000830186610ac9565b610fd66020830185610f6e565b610fe36040830184610bfe565b949350505050565b600081519050610ffa816109c4565b92915050565b60008060408385031215611017576110166109b5565b5b600061102585828601610feb565b925050602061103685828601610feb565b9150509250929050565b600060208284031215611056576110556109b5565b5b600061106484828501610feb565b91505092915050565b60006040820190506110826000830185610bfe565b61108f6020830184610bfe565b9392505050565b6000815190506110a581610a22565b92915050565b6000602082840312156110c1576110c06109b5565b5b60006110cf84828501611096565b9150509291505056fea2646970667358221220791a5816a2bdbf0cab6dc389b64ffd536811070bb1f27d2e66e13e49e559eea664736f6c63430008120033",
  "linkReferences": {},
  "deployedLinkReferences": {}
}