{
  "_format": "hh-sol-artifact-1",
  "contractName": "AMMFactory",
  "sourceName": "contracts/AMMFactory.sol",
  "abi": [
    {
      "inputs": [],
      "stateMutability": "nonpayable",
      "type": "constructor"
    },
    {
      "anonymous": false,
      "inputs": [
        {
          "indexed": true,
          "internalType": "address",
          "name": "tokenA",
          "type": "address"
        },
        {
          "indexed": true,
          "internalType": "address",
          "name": "tokenB",
          "type": "address"
        },
        {
          "indexed": false,
          "internalType": "address",
          "name": "pair",
          "type": "address"
        },
        {
          "indexed": false,
          "internalType": "uint256",
          "name": "",
          "type": "uint256"
        }
      ],
      "name": "PairCreated",
      "type": "event"
    },
    {
      "inputs": [],
      "name": "admin",
      "outputs": [
        {
          "internalType": "address",
          "name": "",
          "type": "address"
        }
      ],
      "stateMutability": "view",
      "type": "function"
    },
    {
      "inputs": [
        {
          "internalType": "uint256",
          "name": "",
          "type": "uint256"
        }
      ],
      "name": "allPairs",
      "outputs": [
        {
          "internalType": "address",
          "name": "",
          "type": "address"
        }
      ],
      "stateMutability": "view",
      "type": "function"
    },
    {
      "inputs": [],
      "name": "allPairsLength",
      "outputs": [
        {
          "internalType": "uint256",
          "name": "",
          "type": "uint256"
        }
      ],
      "stateMutability": "view",
      "type": "function"
    },
    {
      "inputs": [
        {
          "internalType": "address",
          "name": "tokenA",
          "type": "address"
        },
        {
          "internalType": "address",
          "name": "tokenB",
          "type": "address"
        }
      ],
      "name": "createPair",
      "outputs": [
        {
          "internalType": "address",
          "name": "pair",
          "type": "address"
        }
      ],
      "stateMutability": "nonpayable",
      "type": "function"
    },
    {
      "inputs": [
        {
          "internalType": "address",
          "name": "",
          "type": "address"
        },
        {
          "internalType": "address",
          "name": "",
          "type": "address"
        }
      ],
      "name": "getPair",
      "outputs": [
        {
          "internalType": "address",
          "name": "",
          "type": "address"
        }
      ],
      "stateMutability": "view",
      "type": "function"
    }
  ],
  "bytecode": "0x608060405234801561001057600080fd5b5033600260006101000a81548173ffffffffffffffffffffffffffffffffffffffff021916908373ffffffffffffffffffffffffffffffffffffffff160217905550613265806100616000396000f3fe608060405234801561001057600080fd5b50600436106100575760003560e01c80631e3dd18b1461005c578063574f2ba31461008c578063c9c65396146100aa578063e6a43905146100da578063f851a4401461010a575b600080fd5b6100766004803603810190610071919061076c565b610128565b60405161008391906107da565b60405180910390f35b610094610167565b6040516100a19190610804565b60405180910390f35b6100c460048036038101906100bf919061084b565b610174565b6040516100d191906107da565b60405180910390f35b6100f460048036038101906100ef919061084b565b6106bc565b60405161010191906107da565b60405180910390f35b6101126106fe565b60405161011f91906107da565b60405180910390f35b6001818154811061013857600080fd5b906000526020600020016000915054906101000a900473ffffffffffffffffffffffffffffffffffffffff1681565b6000600180549050905090565b60008173ffffffffffffffffffffffffffffffffffffffff168373ffffffffffffffffffffffffffffffffffffffff16036101e4576040517f08c379a00000000000000000000000000000000000000000000000000000000081526004016101db906108e8565b60405180910390fd5b6000808373ffffffffffffffffffffffffffffffffffffffff168573ffffffffffffffffffffffffffffffffffffffff1610610221578385610224565b84845b91509150600073ffffffffffffffffffffffffffffffffffffffff168273ffffffffffffffffffffffffffffffffffffffff1603610297576040517f08c379a000000000000000000000000000000000000000000000000000000000815260040161028e90610954565b60405180910390fd5b600073ffffffffffffffffffffffffffffffffffffffff166000808473ffffffffffffffffffffffffffffffffffffffff1673ffffffffffffffffffffffffffffffffffffffff16815260200190815260200160002060008373ffffffffffffffffffffffffffffffffffffffff1673ffffffffffffffffffffffffffffffffffffffff16815260200190815260200160002060009054906101000a900473ffffffffffffffffffffffffffffffffffffffff1673ffffffffffffffffffffffffffffffffffffffff16146103a1576040517f08c379a0000000000000000000000000000000000000000000000000000000008152600401610398906109c0565b60405180910390fd5b6000604051806020016103b390610724565b6020820181038252601f19601f820116604052509050600083836040516020016103de929190610a28565b604051602081830303815290604052805190602001209050808251602084016000f594508473ffffffffffffffffffffffffffffffffffffffff1663485cc95585856040518363ffffffff1660e01b815260040161043d929190610a54565b600060405180830381600087803b15801561045757600080fd5b505af115801561046b573d6000803e3d6000fd5b50505050846000808673ffffffffffffffffffffffffffffffffffffffff1673ffffffffffffffffffffffffffffffffffffffff16815260200190815260200160002060008573ffffffffffffffffffffffffffffffffffffffff1673ffffffffffffffffffffffffffffffffffffffff16815260200190815260200160002060006101000a81548173ffffffffffffffffffffffffffffffffffffffff021916908373ffffffffffffffffffffffffffffffffffffffff160217905550846000808573ffffffffffffffffffffffffffffffffffffffff1673ffffffffffffffffffffffffffffffffffffffff16815260200190815260200160002060008673ffffffffffffffffffffffffffffffffffffffff1673ffffffffffffffffffffffffffffffffffffffff16815260200190815260200160002060006101000a81548173ffffffffffffffffffffffffffffffffffffffff021916908373ffffffffffffffffffffffffffffffffffffffff1602179055506001859080600181540180825580915050600190039060005260206000200160009091909190916101000a81548173ffffffffffffffffffffffffffffffffffffffff021916908373ffffffffffffffffffffffffffffffffffffffff1602179055508273ffffffffffffffffffffffffffffffffffffffff168473ffffffffffffffffffffffffffffffffffffffff167f0d3648bd0f6ba80134a33ba9275ac585d9d315f0ad8355cddefde31afa28d0e9876001805490506040516106aa929190610a7d565b60405180910390a35050505092915050565b60006020528160005260406000206020528060005260406000206000915091509054906101000a900473ffffffffffffffffffffffffffffffffffffffff1681565b600260009054906101000a900473ffffffffffffffffffffffffffffffffffffffff1681565b61278980610aa783390190565b600080fd5b6000819050919050565b61074981610736565b811461075457600080fd5b50565b60008135905061076681610740565b92915050565b60006020828403121561078257610781610731565b5b600061079084828501610757565b91505092915050565b600073ffffffffffffffffffffffffffffffffffffffff82169050919050565b60006107c482610799565b9050919050565b6107d4816107b9565b82525050565b60006020820190506107ef60008301846107cb565b92915050565b6107fe81610736565b82525050565b600060208201905061081960008301846107f5565b92915050565b610828816107b9565b811461083357600080fd5b50565b6000813590506108458161081f565b92915050565b6000806040838503121561086257610861610731565b5b600061087085828601610836565b925050602061088185828601610836565b9150509250929050565b600082825260208201905092915050565b7f4944454e544943414c0000000000000000000000000000000000000000000000600082015250565b60006108d260098361088b565b91506108dd8261089c565b602082019050919050565b60006020820190508181036000830152610901816108c5565b9050919050565b7f5a45524f00000000000000000000000000000000000000000000000000000000600082015250565b600061093e60048361088b565b915061094982610908565b602082019050919050565b6000602082019050818103600083015261096d81610931565b9050919050565b7f4558495354530000000000000000000000000000000000000000000000000000600082015250565b60006109aa60068361088b565b91506109b582610974565b602082019050919050565b600060208201905081810360008301526109d98161099d565b9050919050565b60008160601b9050919050565b60006109f8826109e0565b9050919050565b6000610a0a826109ed565b9050919050565b610a22610a1d826107b9565b6109ff565b82525050565b6000610a348285610a11565b601482019150610a448284610a11565b6014820191508190509392505050565b6000604082019050610a6960008301856107cb565b610a7660208301846107cb565b9392505050565b6000604082019050610a9260008301856107cb565b610a9f60208301846107f5565b939250505056fe608060405234801561001057600080fd5b50612769806100206000396000f3fe608060405234801561001057600080fd5b50600436106101005760003560e01c80636a6278421161009757806395d89b411161006657806395d89b41146102c5578063a9059cbb146102e3578063d21220a714610313578063dd62ed3e1461033157610100565b80636a627842146102185780636d9a640a1461024857806370a082311461026457806389afcb441461029457610100565b806318160ddd116100d357806318160ddd1461019057806323b872dd146101ae578063313ce567146101de578063485cc955146101fc57610100565b806306fdde03146101055780630902f1ac14610123578063095ea7b3146101425780630dfe168114610172575b600080fd5b61010d610361565b60405161011a9190611d03565b60405180910390f35b61012b61039a565b604051610139929190611d4e565b60405180910390f35b61015c60048036038101906101579190611e10565b6103df565b6040516101699190611e6b565b60405180910390f35b61017a6104d1565b6040516101879190611e95565b60405180910390f35b6101986104f5565b6040516101a59190611ebf565b60405180910390f35b6101c860048036038101906101c39190611eda565b6104fb565b6040516101d59190611e6b565b60405180910390f35b6101e66107ed565b6040516101f39190611f49565b60405180910390f35b61021660048036038101906102119190611f64565b6107f2565b005b610232600480360381019061022d9190611fa4565b6108e2565b60405161023f9190611ebf565b60405180910390f35b610262600480360381019061025d9190611fd1565b610c99565b005b61027e60048036038101906102799190611fa4565b611249565b60405161028b9190611ebf565b60405180910390f35b6102ae60048036038101906102a99190611fa4565b611261565b6040516102bc929190612024565b60405180910390f35b6102cd611888565b6040516102da9190611d03565b60405180910390f35b6102fd60048036038101906102f89190611e10565b6118c1565b60405161030a9190611e6b565b60405180910390f35b61031b611a60565b6040516103289190611e95565b60405180910390f35b61034b60048036038101906103469190611f64565b611a86565b6040516103589190611ebf565b60405180910390f35b6040518060400160405280600c81526020017f414d4d204c5020546f6b656e000000000000000000000000000000000000000081525081565b600080600260009054906101000a90046dffffffffffffffffffffffffffff166002600e9054906101000a90046dffffffffffffffffffffffffffff16915091509091565b600081600560003373ffffffffffffffffffffffffffffffffffffffff1673ffffffffffffffffffffffffffffffffffffffff16815260200190815260200160002060008573ffffffffffffffffffffffffffffffffffffffff1673ffffffffffffffffffffffffffffffffffffffff168152602001908152602001600020819055508273ffffffffffffffffffffffffffffffffffffffff163373ffffffffffffffffffffffffffffffffffffffff167f8c5be1e5ebec7d5bd14f71427d1e84f3dd0314c0f7b2291e5b200ac8c7c3b925846040516104bf9190611ebf565b60405180910390a36001905092915050565b60008054906101000a900473ffffffffffffffffffffffffffffffffffffffff1681565b60035481565b600081600460008673ffffffffffffffffffffffffffffffffffffffff1673ffffffffffffffffffffffffffffffffffffffff16815260200190815260200160002054101561057f576040517f08c379a000000000000000000000000000000000000000000000000000000000815260040161057690612099565b60405180910390fd5b81600560008673ffffffffffffffffffffffffffffffffffffffff1673ffffffffffffffffffffffffffffffffffffffff16815260200190815260200160002060003373ffffffffffffffffffffffffffffffffffffffff1673ffffffffffffffffffffffffffffffffffffffff16815260200190815260200160002054101561063e576040517f08c379a000000000000000000000000000000000000000000000000000000000815260040161063590612105565b60405180910390fd5b81600560008673ffffffffffffffffffffffffffffffffffffffff1673ffffffffffffffffffffffffffffffffffffffff16815260200190815260200160002060003373ffffffffffffffffffffffffffffffffffffffff1673ffffffffffffffffffffffffffffffffffffffff16815260200190815260200160002060008282546106ca9190612154565b9250508190555081600460008673ffffffffffffffffffffffffffffffffffffffff1673ffffffffffffffffffffffffffffffffffffffff16815260200190815260200160002060008282546107209190612154565b9250508190555081600460008573ffffffffffffffffffffffffffffffffffffffff1673ffffffffffffffffffffffffffffffffffffffff16815260200190815260200160002060008282546107769190612188565b925050819055508273ffffffffffffffffffffffffffffffffffffffff168473ffffffffffffffffffffffffffffffffffffffff167fddf252ad1be2c89b69c2b068fc378daa952ba7f163c4a11628f55a4df523b3ef846040516107da9190611ebf565b60405180910390a3600190509392505050565b601281565b600660009054906101000a900460ff1615610842576040517f08c379a000000000000000000000000000000000000000000000000000000000815260040161083990612208565b60405180910390fd5b816000806101000a81548173ffffffffffffffffffffffffffffffffffffffff021916908373ffffffffffffffffffffffffffffffffffffffff16021790555080600160006101000a81548173ffffffffffffffffffffffffffffffffffffffff021916908373ffffffffffffffffffffffffffffffffffffffff1602179055506001600660006101000a81548160ff0219169083151502179055505050565b60008060006108ef61039a565b9150915060008060009054906101000a900473ffffffffffffffffffffffffffffffffffffffff1673ffffffffffffffffffffffffffffffffffffffff166370a08231306040518263ffffffff1660e01b815260040161094f9190611e95565b602060405180830381865afa15801561096c573d6000803e3d6000fd5b505050506040513d601f19601f82011682018060405250810190610990919061223d565b90506000600160009054906101000a900473ffffffffffffffffffffffffffffffffffffffff1673ffffffffffffffffffffffffffffffffffffffff166370a08231306040518263ffffffff1660e01b81526004016109ef9190611e95565b602060405180830381865afa158015610a0c573d6000803e3d6000fd5b505050506040513d601f19601f82011682018060405250810190610a30919061223d565b90506000846dffffffffffffffffffffffffffff1683610a509190612154565b90506000846dffffffffffffffffffffffffffff1683610a709190612154565b9050600060035403610a9757610a908183610a8b919061226a565b611aab565b9650610b05565b6000866dffffffffffffffffffffffffffff1660035484610ab8919061226a565b610ac291906122db565b90506000866dffffffffffffffffffffffffffff1660035484610ae5919061226a565b610aef91906122db565b9050808210610afe5780610b00565b815b985050505b60008711610b48576040517f08c379a0000000000000000000000000000000000000000000000000000000008152600401610b3f90612358565b60405180910390fd5b86600460008a73ffffffffffffffffffffffffffffffffffffffff1673ffffffffffffffffffffffffffffffffffffffff1681526020019081526020016000206000828254610b979190612188565b925050819055508660036000828254610bb09190612188565b92505081905550610bc18484611b25565b8773ffffffffffffffffffffffffffffffffffffffff163373ffffffffffffffffffffffffffffffffffffffff167fdbba30eb0402b389513e87f51f4db2db80bed454384ec6925a24097c3548a02a8484604051610c20929190612024565b60405180910390a38773ffffffffffffffffffffffffffffffffffffffff16600073ffffffffffffffffffffffffffffffffffffffff167fddf252ad1be2c89b69c2b068fc378daa952ba7f163c4a11628f55a4df523b3ef89604051610c869190611ebf565b60405180910390a3505050505050919050565b6000831180610ca85750600082115b610ce7576040517f08c379a0000000000000000000000000000000000000000000000000000000008152600401610cde906123c4565b60405180910390fd5b600080610cf261039a565b91509150816dffffffffffffffffffffffffffff1685108015610d245750806dffffffffffffffffffffffffffff1684105b610d63576040517f08c379a0000000000000000000000000000000000000000000000000000000008152600401610d5a90612430565b60405180910390fd5b6000851115610e0c5760008054906101000a900473ffffffffffffffffffffffffffffffffffffffff1673ffffffffffffffffffffffffffffffffffffffff1663a9059cbb84876040518363ffffffff1660e01b8152600401610dc7929190612450565b6020604051808303816000875af1158015610de6573d6000803e3d6000fd5b505050506040513d601f19601f82011682018060405250810190610e0a91906124a5565b505b6000841115610eb757600160009054906101000a900473ffffffffffffffffffffffffffffffffffffffff1673ffffffffffffffffffffffffffffffffffffffff1663a9059cbb84866040518363ffffffff1660e01b8152600401610e72929190612450565b6020604051808303816000875af1158015610e91573d6000803e3d6000fd5b505050506040513d601f19601f82011682018060405250810190610eb591906124a5565b505b60008060009054906101000a900473ffffffffffffffffffffffffffffffffffffffff1673ffffffffffffffffffffffffffffffffffffffff166370a08231306040518263ffffffff1660e01b8152600401610f139190611e95565b602060405180830381865afa158015610f30573d6000803e3d6000fd5b505050506040513d601f19601f82011682018060405250810190610f54919061223d565b90506000600160009054906101000a900473ffffffffffffffffffffffffffffffffffffffff1673ffffffffffffffffffffffffffffffffffffffff166370a08231306040518263ffffffff1660e01b8152600401610fb39190611e95565b602060405180830381865afa158015610fd0573d6000803e3d6000fd5b505050506040513d601f19601f82011682018060405250810190610ff4919061223d565b9050600087856dffffffffffffffffffffffffffff166110149190612154565b8311611021576000611049565b87856dffffffffffffffffffffffffffff1661103d9190612154565b836110489190612154565b5b9050600087856dffffffffffffffffffffffffffff166110699190612154565b831161107657600061109e565b87856dffffffffffffffffffffffffffff166110929190612154565b8361109d9190612154565b5b905060008211806110af5750600081115b6110ee576040517f08c379a00000000000000000000000000000000000000000000000000000000081526004016110e59061251e565b60405180910390fd5b60006003836110fd919061226a565b6103e88661110b919061226a565b6111159190612154565b90506000600383611126919061226a565b6103e886611134919061226a565b61113e9190612154565b9050620f4240876dffffffffffffffffffffffffffff16896dffffffffffffffffffffffffffff16611170919061226a565b61117a919061226a565b8183611186919061226a565b10156111c7576040517f08c379a00000000000000000000000000000000000000000000000000000000081526004016111be9061258a565b60405180910390fd5b6111d18686611b25565b8873ffffffffffffffffffffffffffffffffffffffff163373ffffffffffffffffffffffffffffffffffffffff167fd78ad95fa46c994b6551d0da85fc275fe613ce37657fb8d5e3d130840159d82286868f8f60405161123494939291906125aa565b60405180910390a35050505050505050505050565b60046020528060005260406000206000915090505481565b6000806000600460003073ffffffffffffffffffffffffffffffffffffffff1673ffffffffffffffffffffffffffffffffffffffff168152602001908152602001600020549050600081116112eb576040517f08c379a00000000000000000000000000000000000000000000000000000000081526004016112e29061263b565b60405180910390fd5b6000806112f661039a565b9150915060008060009054906101000a900473ffffffffffffffffffffffffffffffffffffffff1673ffffffffffffffffffffffffffffffffffffffff166370a08231306040518263ffffffff1660e01b81526004016113569190611e95565b602060405180830381865afa158015611373573d6000803e3d6000fd5b505050506040513d601f19601f82011682018060405250810190611397919061223d565b90506000600160009054906101000a900473ffffffffffffffffffffffffffffffffffffffff1673ffffffffffffffffffffffffffffffffffffffff166370a08231306040518263ffffffff1660e01b81526004016113f69190611e95565b602060405180830381865afa158015611413573d6000803e3d6000fd5b505050506040513d601f19601f82011682018060405250810190611437919061223d565b90506003548286611448919061226a565b61145291906122db565b96506003548186611463919061226a565b61146d91906122db565b955060008711801561147f5750600086115b6114be576040517f08c379a00000000000000000000000000000000000000000000000000000000081526004016114b5906126a7565b60405180910390fd5b84600460003073ffffffffffffffffffffffffffffffffffffffff1673ffffffffffffffffffffffffffffffffffffffff168152602001908152602001600020600082825461150d9190612154565b9250508190555084600360008282546115269190612154565b92505081905550600073ffffffffffffffffffffffffffffffffffffffff163073ffffffffffffffffffffffffffffffffffffffff167fddf252ad1be2c89b69c2b068fc378daa952ba7f163c4a11628f55a4df523b3ef8760405161158b9190611ebf565b60405180910390a360008054906101000a900473ffffffffffffffffffffffffffffffffffffffff1673ffffffffffffffffffffffffffffffffffffffff1663a9059cbb89896040518363ffffffff1660e01b81526004016115ee929190612450565b6020604051808303816000875af115801561160d573d6000803e3d6000fd5b505050506040513d601f19601f8201168201806040525081019061163191906124a5565b50600160009054906101000a900473ffffffffffffffffffffffffffffffffffffffff1673ffffffffffffffffffffffffffffffffffffffff1663a9059cbb89886040518363ffffffff1660e01b815260040161168f929190612450565b6020604051808303816000875af11580156116ae573d6000803e3d6000fd5b505050506040513d601f19601f820116820180604052508101906116d291906124a5565b5060008054906101000a900473ffffffffffffffffffffffffffffffffffffffff1673ffffffffffffffffffffffffffffffffffffffff166370a08231306040518263ffffffff1660e01b815260040161172c9190611e95565b602060405180830381865afa158015611749573d6000803e3d6000fd5b505050506040513d601f19601f8201168201806040525081019061176d919061223d565b9150600160009054906101000a900473ffffffffffffffffffffffffffffffffffffffff1673ffffffffffffffffffffffffffffffffffffffff166370a08231306040518263ffffffff1660e01b81526004016117ca9190611e95565b602060405180830381865afa1580156117e7573d6000803e3d6000fd5b505050506040513d601f19601f8201168201806040525081019061180b919061223d565b90506118178282611b25565b8773ffffffffffffffffffffffffffffffffffffffff163373ffffffffffffffffffffffffffffffffffffffff167fdccd412f0b1252819cb1fd330b93224ca42612892bb3f4f789976e6d819364968989604051611876929190612024565b60405180910390a35050505050915091565b6040518060400160405280600681526020017f414d4d2d4c50000000000000000000000000000000000000000000000000000081525081565b600081600460003373ffffffffffffffffffffffffffffffffffffffff1673ffffffffffffffffffffffffffffffffffffffff168152602001908152602001600020541015611945576040517f08c379a000000000000000000000000000000000000000000000000000000000815260040161193c90612099565b60405180910390fd5b81600460003373ffffffffffffffffffffffffffffffffffffffff1673ffffffffffffffffffffffffffffffffffffffff16815260200190815260200160002060008282546119949190612154565b9250508190555081600460008573ffffffffffffffffffffffffffffffffffffffff1673ffffffffffffffffffffffffffffffffffffffff16815260200190815260200160002060008282546119ea9190612188565b925050819055508273ffffffffffffffffffffffffffffffffffffffff163373ffffffffffffffffffffffffffffffffffffffff167fddf252ad1be2c89b69c2b068fc378daa952ba7f163c4a11628f55a4df523b3ef84604051611a4e9190611ebf565b60405180910390a36001905092915050565b600160009054906101000a900473ffffffffffffffffffffffffffffffffffffffff1681565b6005602052816000526040600020602052806000526040600020600091509150505481565b60006003821115611b125781905060006001600284611aca91906122db565b611ad49190612188565b90505b81811015611b0c578091506002818285611af191906122db565b611afb9190612188565b611b0591906122db565b9050611ad7565b50611b20565b60008214611b1f57600190505b5b919050565b6dffffffffffffffffffffffffffff80168211158015611b5557506dffffffffffffffffffffffffffff80168111155b611b94576040517f08c379a0000000000000000000000000000000000000000000000000000000008152600401611b8b90612713565b60405180910390fd5b81600260006101000a8154816dffffffffffffffffffffffffffff02191690836dffffffffffffffffffffffffffff160217905550806002600e6101000a8154816dffffffffffffffffffffffffffff02191690836dffffffffffffffffffffffffffff1602179055507f1c411e9a96e071241c2f21f7726b17ae89e3cab4c78be50e062b03a9fffbbad1600260009054906101000a90046dffffffffffffffffffffffffffff166002600e9054906101000a90046dffffffffffffffffffffffffffff16604051611c67929190611d4e565b60405180910390a15050565b600081519050919050565b600082825260208201905092915050565b60005b83811015611cad578082015181840152602081019050611c92565b60008484015250505050565b6000601f19601f8301169050919050565b6000611cd582611c73565b611cdf8185611c7e565b9350611cef818560208601611c8f565b611cf881611cb9565b840191505092915050565b60006020820190508181036000830152611d1d8184611cca565b905092915050565b60006dffffffffffffffffffffffffffff82169050919050565b611d4881611d25565b82525050565b6000604082019050611d636000830185611d3f565b611d706020830184611d3f565b9392505050565b600080fd5b600073ffffffffffffffffffffffffffffffffffffffff82169050919050565b6000611da782611d7c565b9050919050565b611db781611d9c565b8114611dc257600080fd5b50565b600081359050611dd481611dae565b92915050565b6000819050919050565b611ded81611dda565b8114611df857600080fd5b50565b600081359050611e0a81611de4565b92915050565b60008060408385031215611e2757611e26611d77565b5b6000611e3585828601611dc5565b9250506020611e4685828601611dfb565b9150509250929050565b60008115159050919050565b611e6581611e50565b82525050565b6000602082019050611e806000830184611e5c565b92915050565b611e8f81611d9c565b82525050565b6000602082019050611eaa6000830184611e86565b92915050565b611eb981611dda565b82525050565b6000602082019050611ed46000830184611eb0565b92915050565b600080600060608486031215611ef357611ef2611d77565b5b6000611f0186828701611dc5565b9350506020611f1286828701611dc5565b9250506040611f2386828701611dfb565b9150509250925092565b600060ff82169050919050565b611f4381611f2d565b82525050565b6000602082019050611f5e6000830184611f3a565b92915050565b60008060408385031215611f7b57611f7a611d77565b5b6000611f8985828601611dc5565b9250506020611f9a85828601611dc5565b9150509250929050565b600060208284031215611fba57611fb9611d77565b5b6000611fc884828501611dc5565b91505092915050565b600080600060608486031215611fea57611fe9611d77565b5b6000611ff886828701611dfb565b935050602061200986828701611dfb565b925050604061201a86828701611dc5565b9150509250925092565b60006040820190506120396000830185611eb0565b6120466020830184611eb0565b9392505050565b7f494e53554646494349454e545f42414c414e4345000000000000000000000000600082015250565b6000612083601483611c7e565b915061208e8261204d565b602082019050919050565b600060208201905081810360008301526120b281612076565b9050919050565b7f494e53554646494349454e545f414c4c4f57414e434500000000000000000000600082015250565b60006120ef601683611c7e565b91506120fa826120b9565b602082019050919050565b6000602082019050818103600083015261211e816120e2565b9050919050565b7f4e487b7100000000000000000000000000000000000000000000000000000000600052601160045260246000fd5b600061215f82611dda565b915061216a83611dda565b925082820390508181111561218257612181612125565b5b92915050565b600061219382611dda565b915061219e83611dda565b92508282019050808211156121b6576121b5612125565b5b92915050565b7f414c52454144595f494e495449414c495a454400000000000000000000000000600082015250565b60006121f2601383611c7e565b91506121fd826121bc565b602082019050919050565b60006020820190508181036000830152612221816121e5565b9050919050565b60008151905061223781611de4565b92915050565b60006020828403121561225357612252611d77565b5b600061226184828501612228565b91505092915050565b600061227582611dda565b915061228083611dda565b925082820261228e81611dda565b915082820484148315176122a5576122a4612125565b5b5092915050565b7f4e487b7100000000000000000000000000000000000000000000000000000000600052601260045260246000fd5b60006122e682611dda565b91506122f183611dda565b925082612301576123006122ac565b5b828204905092915050565b7f494e53554646494349454e545f4c49515549444954595f4d494e544544000000600082015250565b6000612342601d83611c7e565b915061234d8261230c565b602082019050919050565b6000602082019050818103600083015261237181612335565b9050919050565b7f494e53554646494349454e545f4f555450555400000000000000000000000000600082015250565b60006123ae601383611c7e565b91506123b982612378565b602082019050919050565b600060208201905081810360008301526123dd816123a1565b9050919050565b7f494e53554646494349454e545f4c495155494449545900000000000000000000600082015250565b600061241a601683611c7e565b9150612425826123e4565b602082019050919050565b600060208201905081810360008301526124498161240d565b9050919050565b60006040820190506124656000830185611e86565b6124726020830184611eb0565b9392505050565b61248281611e50565b811461248d57600080fd5b50565b60008151905061249f81612479565b92915050565b6000602082840312156124bb576124ba611d77565b5b60006124c984828501612490565b91505092915050565b7f494e53554646494349454e545f494e5055540000000000000000000000000000600082015250565b6000612508601283611c7e565b9150612513826124d2565b602082019050919050565b60006020820190508181036000830152612537816124fb565b9050919050565b7f4b00000000000000000000000000000000000000000000000000000000000000600082015250565b6000612574600183611c7e565b915061257f8261253e565b602082019050919050565b600060208201905081810360008301526125a381612567565b9050919050565b60006080820190506125bf6000830187611eb0565b6125cc6020830186611eb0565b6125d96040830185611eb0565b6125e66060830184611eb0565b95945050505050565b7f4e4f5f4c49515549444954590000000000000000000000000000000000000000600082015250565b6000612625600c83611c7e565b9150612630826125ef565b602082019050919050565b6000602082019050818103600083015261265481612618565b9050919050565b7f494e53554646494349454e545f4255524e5f414d4f554e540000000000000000600082015250565b6000612691601883611c7e565b915061269c8261265b565b602082019050919050565b600060208201905081810360008301526126c081612684565b9050919050565b7f4f564552464c4f57000000000000000000000000000000000000000000000000600082015250565b60006126fd600883611c7e565b9150612708826126c7565b602082019050919050565b6000602082019050818103600083015261272c816126f0565b905091905056fea264697066735822122097d2300ea416a2d88d55c2ce98e85b440172336662428fecf7124ec5a592d00164736f6c63430008120033a264697066735822122084cc01db19a0c5c64f5c7389386979a73a959f08542736d9ae4991de3f1ed30f64736f6c63430008120033",
  "linkReferences": {},
  "deployedLinkReferences": {}
}