{
  "_format": "hh-sol-artifact-1",
  "contractName": "MetadataRegistry",
  "sourceName": "contracts/MetadataRegistry.sol",
  "abi": [
    {
      "inputs": [
        {
          "internalType": "address",
          "name": "_admin",
          "type": "address"
        }
      ],
      "stateMutability": "nonpayable",
      "type": "constructor"
    },
    {
      "anonymous": false,
      "inputs": [
        {
          "indexed": true,
          "internalType": "address",
          "name": "token",
          "type": "address"
        },
        {
          "indexed": true,
          "internalType": "address",
          "name": "setter",
          "type": "address"
        },
        {
          "indexed": false,
          "internalType": "string",
          "name": "metadataURI",
          "type": "string"
        }
      ],
      "name": "MetadataSet",
      "type": "event"
    },
    {
      "inputs": [],
      "name": "admin",
      "outputs": [
        {
          "internalType": "address",
          "name": "",
          "type": "address"
        }
      ],
      "stateMutability": "view",
      "type": "function"
    },
    {
      "inputs": [
        {
          "internalType": "address",
          "name": "newAdmin",
          "type": "address"
        }
      ],
      "name": "changeAdmin",
      "outputs": [],
      "stateMutability": "nonpayable",
      "type": "function"
    },
    {
      "inputs": [
        {
          "internalType": "address",
          "name": "",
          "type": "address"
        }
      ],
      "name": "metadata",
      "outputs": [
        {
          "internalType": "string",
          "name": "",
          "type": "string"
        }
      ],
      "stateMutability": "view",
      "type": "function"
    },
    {
      "inputs": [
        {
          "internalType": "address",
          "name": "token",
          "type": "address"
        },
        {
          "internalType": "string",
          "name": "metadataURI",
          "type": "string"
        }
      ],
      "name": "setMetadata",
      "outputs": [],
      "stateMutability": "nonpayable",
      "type": "function"
    }
  ],
  "bytecode": "0x608060405234801561001057600080fd5b50604051610b2b380380610b2b833981810160405281019061003291906100dc565b80600160006101000a81548173ffffffffffffffffffffffffffffffffffffffff021916908373ffffffffffffffffffffffffffffffffffffffff16021790555050610109565b600080fd5b600073ffffffffffffffffffffffffffffffffffffffff82169050919050565b60006100a98261007e565b9050919050565b6100b98161009e565b81146100c457600080fd5b50565b6000815190506100d6816100b0565b92915050565b6000602082840312156100f2576100f1610079565b5b6000610100848285016100c7565b91505092915050565b610a13806101186000396000f3fe608060405234801561001057600080fd5b506004361061004c5760003560e01c80632ba21572146100515780634fbffc93146100815780638f2839701461009d578063f851a440146100b9575b600080fd5b61006b60048036038101906100669190610423565b6100d7565b60405161007891906104e0565b60405180910390f35b61009b60048036038101906100969190610567565b610177565b005b6100b760048036038101906100b29190610423565b6102c1565b005b6100c1610395565b6040516100ce91906105d6565b60405180910390f35b600060205280600052604060002060009150905080546100f690610620565b80601f016020809104026020016040519081016040528092919081815260200182805461012290610620565b801561016f5780601f106101445761010080835404028352916020019161016f565b820191906000526020600020905b81548152906001019060200180831161015257829003601f168201915b505050505081565b600160009054906101000a900473ffffffffffffffffffffffffffffffffffffffff1673ffffffffffffffffffffffffffffffffffffffff163373ffffffffffffffffffffffffffffffffffffffff1614610207576040517f08c379a00000000000000000000000000000000000000000000000000000000081526004016101fe9061069d565b60405180910390fd5b81816000808673ffffffffffffffffffffffffffffffffffffffff1673ffffffffffffffffffffffffffffffffffffffff16815260200190815260200160002091826102549291906108ad565b503373ffffffffffffffffffffffffffffffffffffffff168373ffffffffffffffffffffffffffffffffffffffff167fedcaa71483243d7a5ca5e6114a75dd37a9a11c7d8c8ba9360a403d71300365e484846040516102b49291906109b9565b60405180910390a3505050565b600160009054906101000a900473ffffffffffffffffffffffffffffffffffffffff1673ffffffffffffffffffffffffffffffffffffffff163373ffffffffffffffffffffffffffffffffffffffff1614610351576040517f08c379a00000000000000000000000000000000000000000000000000000000081526004016103489061069d565b60405180910390fd5b80600160006101000a81548173ffffffffffffffffffffffffffffffffffffffff021916908373ffffffffffffffffffffffffffffffffffffffff16021790555050565b600160009054906101000a900473ffffffffffffffffffffffffffffffffffffffff1681565b600080fd5b600080fd5b600073ffffffffffffffffffffffffffffffffffffffff82169050919050565b60006103f0826103c5565b9050919050565b610400816103e5565b811461040b57600080fd5b50565b60008135905061041d816103f7565b92915050565b600060208284031215610439576104386103bb565b5b60006104478482850161040e565b91505092915050565b600081519050919050565b600082825260208201905092915050565b60005b8381101561048a57808201518184015260208101905061046f565b60008484015250505050565b6000601f19601f8301169050919050565b60006104b282610450565b6104bc818561045b565b93506104cc81856020860161046c565b6104d581610496565b840191505092915050565b600060208201905081810360008301526104fa81846104a7565b905092915050565b600080fd5b600080fd5b600080fd5b60008083601f84011261052757610526610502565b5b8235905067ffffffffffffffff81111561054457610543610507565b5b6020830191508360018202830111156105605761055f61050c565b5b9250929050565b6000806000604084860312156105805761057f6103bb565b5b600061058e8682870161040e565b935050602084013567ffffffffffffffff8111156105af576105ae6103c0565b5b6105bb86828701610511565b92509250509250925092565b6105d0816103e5565b82525050565b60006020820190506105eb60008301846105c7565b92915050565b7f4e487b7100000000000000000000000000000000000000000000000000000000600052602260045260246000fd5b6000600282049050600182168061063857607f821691505b60208210810361064b5761064a6105f1565b5b50919050565b7f4e6f742061646d696e0000000000000000000000000000000000000000000000600082015250565b600061068760098361045b565b915061069282610651565b602082019050919050565b600060208201905081810360008301526106b68161067a565b9050919050565b600082905092915050565b7f4e487b7100000000000000000000000000000000000000000000000000000000600052604160045260246000fd5b60008190508160005260206000209050919050565b60006020601f8301049050919050565b600082821b905092915050565b6000600883026107597fffffffffffffffffffffffffffffffffffffffffffffffffffffffffffffffff8261071c565b610763868361071c565b95508019841693508086168417925050509392505050565b6000819050919050565b6000819050919050565b60006107aa6107a56107a08461077b565b610785565b61077b565b9050919050565b6000819050919050565b6107c48361078f565b6107d86107d0826107b1565b848454610729565b825550505050565b600090565b6107ed6107e0565b6107f88184846107bb565b505050565b5b8181101561081c576108116000826107e5565b6001810190506107fe565b5050565b601f82111561086157610832816106f7565b61083b8461070c565b8101602085101561084a578190505b61085e6108568561070c565b8301826107fd565b50505b505050565b600082821c905092915050565b600061088460001984600802610866565b1980831691505092915050565b600061089d8383610873565b9150826002028217905092915050565b6108b783836106bd565b67ffffffffffffffff8111156108d0576108cf6106c8565b5b6108da8254610620565b6108e5828285610820565b6000601f8311600181146109145760008415610902578287013590505b61090c8582610891565b865550610974565b601f198416610922866106f7565b60005b8281101561094a57848901358255600182019150602085019450602081019050610925565b868310156109675784890135610963601f891682610873565b8355505b6001600288020188555050505b50505050505050565b82818337600083830152505050565b6000610998838561045b565b93506109a583858461097d565b6109ae83610496565b840190509392505050565b600060208201905081810360008301526109d481848661098c565b9050939250505056fea2646970667358221220d0e2460af03b76408072901c2ec86e3e48fec47b41e69a6fd91ead0cc665a9cd64736f6c63430008120033",
  "linkReferences": {},
  "deployedLinkReferences": {}
}