{
  "_format": "hh-sol-artifact-1",
  "contractName": "PostBoard",
  "sourceName": "contracts/PostBoard.sol",
  "abi": [
    {
      "anonymous": false,
      "inputs": [
        {
          "indexed": true,
          "internalType": "uint256",
          "name": "postId",
          "type": "uint256"
        },
        {
          "indexed": true,
          "internalType": "address",
          "name": "author",
          "type": "address"
        },
        {
          "indexed": false,
          "internalType": "string",
          "name": "title",
          "type": "string"
        }
      ],
      "name": "PostCreated",
      "type": "event"
    },
    {
      "anonymous": false,
      "inputs": [
        {
          "indexed": true,
          "internalType": "uint256",
          "name": "postId",
          "type": "uint256"
        },
        {
          "indexed": true,
          "internalType": "address",
          "name": "author",
          "type": "address"
        },
        {
          "indexed": false,
          "internalType": "string",
          "name": "title",
          "type": "string"
        }
      ],
      "name": "PostEdited",
      "type": "event"
    },
    {
      "inputs": [
        {
          "internalType": "string",
          "name": "title",
          "type": "string"
        },
        {
          "internalType": "string",
          "name": "content",
          "type": "string"
        },
        {
          "internalType": "string",
          "name": "imageUrl",
          "type": "string"
        },
        {
          "internalType": "string",
          "name": "date",
          "type": "string"
        },
        {
          "internalType": "string",
          "name": "others",
          "type": "string"
        }
      ],
      "name": "createPost",
      "outputs": [],
      "stateMutability": "nonpayable",
      "type": "function"
    },
    {
      "inputs": [
        {
          "internalType": "uint256",
          "name": "postId",
          "type": "uint256"
        },
        {
          "internalType": "string",
          "name": "title",
          "type": "string"
        },
        {
          "internalType": "string",
          "name": "content",
          "type": "string"
        },
        {
          "internalType": "string",
          "name": "imageUrl",
          "type": "string"
        },
        {
          "internalType": "string",
          "name": "date",
          "type": "string"
        },
        {
          "internalType": "string",
          "name": "others",
          "type": "string"
        }
      ],
      "name": "editPost",
      "outputs": [],
      "stateMutability": "nonpayable",
      "type": "function"
    },
    {
      "inputs": [
        {
          "internalType": "uint256",
          "name": "postId",
          "type": "uint256"
        }
      ],
      "name": "getPost",
      "outputs": [
        {
          "internalType": "string",
          "name": "title",
          "type": "string"
        },
        {
          "internalType": "string",
          "name": "content",
          "type": "string"
        },
        {
          "internalType": "string",
          "name": "imageUrl",
          "type": "string"
        },
        {
          "internalType": "string",
          "name": "date",
          "type": "string"
        },
        {
          "internalType": "string",
          "name": "others",
          "type": "string"
        },
        {
          "internalType": "address",
          "name": "author",
          "type": "address"
        }
      ],
      "stateMutability": "view",
      "type": "function"
    },
    {
      "inputs": [],
      "name": "getPostCount",
      "outputs": [
        {
          "internalType": "uint256",
          "name": "",
          "type": "uint256"
        }
      ],
      "stateMutability": "view",
      "type": "function"
    },
    {
      "inputs": [],
      "name": "postCount",
      "outputs": [
        {
          "internalType": "uint256",
          "name": "",
          "type": "uint256"
        }
      ],
      "stateMutability": "view",
      "type": "function"
    }
  ],
  "bytecode": "0x608060405234801561001057600080fd5b5061107c806100206000396000f3fe608060405234801561001057600080fd5b50600436106100575760003560e01c806317906c2e1461005c57806340731c241461007a578063bcc95407146100af578063c1d77757146100cd578063fc446bb4146100e9575b600080fd5b610064610105565b6040516100719190610731565b60405180910390f35b610094600480360381019061008f919061078c565b61010b565b6040516100a69695949392919061088a565b60405180910390f35b6100b7610435565b6040516100c49190610731565b60405180910390f35b6100e760048036038101906100e29190610a43565b61043f565b005b61010360048036038101906100fe9190610b5c565b610599565b005b60015481565b6060806060806060600080600080898152602001908152602001600020905080600001816001018260020183600301846004018560050160009054906101000a900473ffffffffffffffffffffffffffffffffffffffff1685805461016f90610c92565b80601f016020809104026020016040519081016040528092919081815260200182805461019b90610c92565b80156101e85780601f106101bd576101008083540402835291602001916101e8565b820191906000526020600020905b8154815290600101906020018083116101cb57829003601f168201915b505050505095508480546101fb90610c92565b80601f016020809104026020016040519081016040528092919081815260200182805461022790610c92565b80156102745780601f1061024957610100808354040283529160200191610274565b820191906000526020600020905b81548152906001019060200180831161025757829003601f168201915b5050505050945083805461028790610c92565b80601f01602080910402602001604051908101604052809291908181526020018280546102b390610c92565b80156103005780601f106102d557610100808354040283529160200191610300565b820191906000526020600020905b8154815290600101906020018083116102e357829003601f168201915b5050505050935082805461031390610c92565b80601f016020809104026020016040519081016040528092919081815260200182805461033f90610c92565b801561038c5780601f106103615761010080835404028352916020019161038c565b820191906000526020600020905b81548152906001019060200180831161036f57829003601f168201915b5050505050925081805461039f90610c92565b80601f01602080910402602001604051908101604052809291908181526020018280546103cb90610c92565b80156104185780601f106103ed57610100808354040283529160200191610418565b820191906000526020600020905b8154815290600101906020018083116103fb57829003601f168201915b505050505091509650965096509650965096505091939550919395565b6000600154905090565b600080600088815260200190815260200160002090503373ffffffffffffffffffffffffffffffffffffffff168160050160009054906101000a900473ffffffffffffffffffffffffffffffffffffffff1673ffffffffffffffffffffffffffffffffffffffff16146104e7576040517f08c379a00000000000000000000000000000000000000000000000000000000081526004016104de90610d0f565b60405180910390fd5b858160000190816104f89190610edb565b508481600101908161050a9190610edb565b508381600201908161051c9190610edb565b508281600301908161052e9190610edb565b50818160040190816105409190610edb565b503373ffffffffffffffffffffffffffffffffffffffff16877fc7931b4f20484d9753f780534a76cc5a97feb26c3ca558bb2cb5fa326d8b133b886040516105889190610fad565b60405180910390a350505050505050565b600160008154809291906105ac90610ffe565b91905055506040518060c001604052808681526020018581526020018481526020018381526020018281526020013373ffffffffffffffffffffffffffffffffffffffff168152506000806001548152602001908152602001600020600082015181600001908161061d9190610edb565b5060208201518160010190816106339190610edb565b5060408201518160020190816106499190610edb565b50606082015181600301908161065f9190610edb565b5060808201518160040190816106759190610edb565b5060a08201518160050160006101000a81548173ffffffffffffffffffffffffffffffffffffffff021916908373ffffffffffffffffffffffffffffffffffffffff1602179055509050503373ffffffffffffffffffffffffffffffffffffffff166001547f8e40a51278abe2f4b410c0a96ff0bdd024b22666ca334062bf72afd596984bd6876040516107099190610fad565b60405180910390a35050505050565b6000819050919050565b61072b81610718565b82525050565b60006020820190506107466000830184610722565b92915050565b6000604051905090565b600080fd5b600080fd5b61076981610718565b811461077457600080fd5b50565b60008135905061078681610760565b92915050565b6000602082840312156107a2576107a1610756565b5b60006107b084828501610777565b91505092915050565b600081519050919050565b600082825260208201905092915050565b60005b838110156107f35780820151818401526020810190506107d8565b60008484015250505050565b6000601f19601f8301169050919050565b600061081b826107b9565b61082581856107c4565b93506108358185602086016107d5565b61083e816107ff565b840191505092915050565b600073ffffffffffffffffffffffffffffffffffffffff82169050919050565b600061087482610849565b9050919050565b61088481610869565b82525050565b600060c08201905081810360008301526108a48189610810565b905081810360208301526108b88188610810565b905081810360408301526108cc8187610810565b905081810360608301526108e08186610810565b905081810360808301526108f48185610810565b905061090360a083018461087b565b979650505050505050565b600080fd5b600080fd5b7f4e487b7100000000000000000000000000000000000000000000000000000000600052604160045260246000fd5b610950826107ff565b810181811067ffffffffffffffff8211171561096f5761096e610918565b5b80604052505050565b600061098261074c565b905061098e8282610947565b919050565b600067ffffffffffffffff8211156109ae576109ad610918565b5b6109b7826107ff565b9050602081019050919050565b82818337600083830152505050565b60006109e66109e184610993565b610978565b905082815260208101848484011115610a0257610a01610913565b5b610a0d8482856109c4565b509392505050565b600082601f830112610a2a57610a2961090e565b5b8135610a3a8482602086016109d3565b91505092915050565b60008060008060008060c08789031215610a6057610a5f610756565b5b6000610a6e89828a01610777565b965050602087013567ffffffffffffffff811115610a8f57610a8e61075b565b5b610a9b89828a01610a15565b955050604087013567ffffffffffffffff811115610abc57610abb61075b565b5b610ac889828a01610a15565b945050606087013567ffffffffffffffff811115610ae957610ae861075b565b5b610af589828a01610a15565b935050608087013567ffffffffffffffff811115610b1657610b1561075b565b5b610b2289828a01610a15565b92505060a087013567ffffffffffffffff811115610b4357610b4261075b565b5b610b4f89828a01610a15565b9150509295509295509295565b600080600080600060a08688031215610b7857610b77610756565b5b600086013567ffffffffffffffff811115610b9657610b9561075b565b5b610ba288828901610a15565b955050602086013567ffffffffffffffff811115610bc357610bc261075b565b5b610bcf88828901610a15565b945050604086013567ffffffffffffffff811115610bf057610bef61075b565b5b610bfc88828901610a15565b935050606086013567ffffffffffffffff811115610c1d57610c1c61075b565b5b610c2988828901610a15565b925050608086013567ffffffffffffffff811115610c4a57610c4961075b565b5b610c5688828901610a15565b9150509295509295909350565b7f4e487b7100000000000000000000000000000000000000000000000000000000600052602260045260246000fd5b60006002820490506001821680610caa57607f821691505b602082108103610cbd57610cbc610c63565b5b50919050565b7f4e6f742074686520617574686f72000000000000000000000000000000000000600082015250565b6000610cf9600e836107c4565b9150610d0482610cc3565b602082019050919050565b60006020820190508181036000830152610d2881610cec565b9050919050565b60008190508160005260206000209050919050565b60006020601f8301049050919050565b600082821b905092915050565b600060088302610d917fffffffffffffffffffffffffffffffffffffffffffffffffffffffffffffffff82610d54565b610d9b8683610d54565b95508019841693508086168417925050509392505050565b6000819050919050565b6000610dd8610dd3610dce84610718565b610db3565b610718565b9050919050565b6000819050919050565b610df283610dbd565b610e06610dfe82610ddf565b848454610d61565b825550505050565b600090565b610e1b610e0e565b610e26818484610de9565b505050565b5b81811015610e4a57610e3f600082610e13565b600181019050610e2c565b5050565b601f821115610e8f57610e6081610d2f565b610e6984610d44565b81016020851015610e78578190505b610e8c610e8485610d44565b830182610e2b565b50505b505050565b600082821c905092915050565b6000610eb260001984600802610e94565b1980831691505092915050565b6000610ecb8383610ea1565b9150826002028217905092915050565b610ee4826107b9565b67ffffffffffffffff811115610efd57610efc610918565b5b610f078254610c92565b610f12828285610e4e565b600060209050601f831160018114610f455760008415610f33578287015190505b610f3d8582610ebf565b865550610fa5565b601f198416610f5386610d2f565b60005b82811015610f7b57848901518255600182019150602085019450602081019050610f56565b86831015610f985784890151610f94601f891682610ea1565b8355505b6001600288020188555050505b505050505050565b60006020820190508181036000830152610fc78184610810565b905092915050565b7f4e487b7100000000000000000000000000000000000000000000000000000000600052601160045260246000fd5b600061100982610718565b91507fffffffffffffffffffffffffffffffffffffffffffffffffffffffffffffffff820361103b5761103a610fcf565b5b60018201905091905056fea26469706673582212201f6f87d936e53e2fbdd4715182110feeb1ecab85a0a0b370952e90df4bc8821d64736f6c63430008120033",
  "linkReferences": {},
  "deployedLinkReferences": {}
}